:020000040800F2
:10000000D0980020AD150008C1040008C304000802
:10001000C5040008C7040008C90400080000000067
:10002000000000000000000000000000B90200080D
:10003000CB04000800000000FD020008D5140008F1
:10004000C7150008C7150008C7150008C715000820
:10005000C7150008C71500085B0B0008790B0008DE
:10006000970B0008B50B0008D30B0008C715000854
:10007000C7150008C7150008C7150008C7150008F0
:10008000C7150008C7150008C7150008C7150008E0
:10009000C7150008C7150008C7150008F10B0008B0
:1000A000C7150008C7150008C7150008C7150008C0
:1000B00087070008C7150008C7150008C7150008FE
:1000C000C7150008C7150008C7150008C7150008A0
:1000D000C7150008CB650008C7150008C71500083C
:1000E000670C0008C7150008C7150008C7150008E9
:1000F000C7150008C7150008C7150008C715000870
:10010000C7150008C7150008E7660008C7150008EE
:10011000C7150008C71500089D0D0008C715000881
:10012000C7150008C7150008C7150008C71500083F
:1001300000F002F800F0B0F80AA090E8000C824449
:100140008344AAF10107DA4501D100F0A5F8AFF226
:10015000090EBAE80F0013F0010F18BFFB1A43F0A5
:10016000010318470CC200002CC200000A444FF0E3
:10017000000C10F8013B13F0070408BF10F8014B06
:100180001D1108BF10F8015B641E05D010F8016B4B
:10019000641E01F8016BF9D113F0080F1EBF10F8AF
:1001A000014BAD1C0C1B09D16D1E58BF01F801CBD2
:1001B000FAD505E014F8016B01F8016B6D1EF9D555
:1001C0009142D6D37047000000230024002500266A
:1001D000103A28BF78C1FBD8520728BF30C148BFAA
:1001E0000B6070476E2909F0BC83702909F05B81B0
:1001F00066290BF0B68565290BF0B38567290BF0EE
:10020000B08561290BF0AF8503681B0A28BF41F058
:100210008001692909F0CC80642909F0C980752919
:1002200009F0C6806F2909F0BC84782909F027817C
:10023000E92909F05784E42909F05484F52909F0E3
:100240005184EF2909F0B984F82909F0268103685F
:10025000DB0928BF41F08001632909F0C6837329B7
:1002600009F0CB83E3290AF0E980F3290AF0EE8054
:10027000002070471FB50AF03FF90400002000215C
:100280000AF038FE401C6060002000210AF01CFECD
:10029000E0601FBD10B510BD0AF000F91146FFF770
:1002A000E9FF00F0CBF80AF0DDF903B4FFF7F2FF45
:1002B00003BC01F0ADF80000224B19680868B0E8F3
:1002C000F00F80F30988BFF36F8F4FF0000080F3C9
:1002D00011884EF00D0E70470000000006480068BF
:1002E000006880F3088862B661B6BFF34F8FBFF332
:1002F0006F8F00DF00BF00BF08ED00E0EFF3098063
:10030000BFF36F8F0F4B1A6820E9F00F106008B52C
:100310004FF0500080F31188BFF34F8FBFF36F8F02
:1003200004F0A7F84FF0000080F31188BDE8084002
:1003300019680868B0E8F00F80F30988BFF36F8F81
:10034000704700BF44000020EFF3058070470000B5
:100350000EB50C2007F029FC04460B2007F025FC05
:1003600040EA440010F0FF0400D102243CA02E21FA
:10037000CDE90010404B41A2029442A1032006F0B7
:1003800009FB00204FF4165301222146009005F08E
:1003900091FA05F003FB3DA13620CDE90001364B73
:1003A00036A238A1032006F0F5FA05F013FB07206A
:1003B00003F093FFF9E71CB54FF4407001F016F914
:1003C0004FF4165001F03AF800F01AFA07F074FBF7
:1003D00007F0F0FB07F02CFD06F0B9FCF721002038
:1003E00006F027FD0721012006F023FD072102204A
:1003F00006F01FFDB721032006F01BFDB7210420E6
:1004000006F017FDB721052006F013FD06F0D8FC15
:1004100024A15520184BCDE90001103317A219A1D2
:10042000032006F0B7FA00F0E1F83F214FF6FF7025
:1004300000F05AF9BDE81C4008F01DBB1CB5FFF7E1
:10044000BAFF002104200B46CDE90001820119A169
:10045000AFF2031003F07FFD04F023F9FEE7000084
:100460006D6F6462757320736C617665206164647E
:1004700072206973202564006ABD00086D61696E91
:100480002E6300004E4F5F54414700006D6F646261
:10049000757320736C617665207461736B20696E6F
:1004A0006974000073797374656D2073746172747C
:1004B00000000000467265654D6F64627573000050
:1004C0007047FEE7FEE7FEE7FEE770473F4810B5DE
:1004D000016841F00101016041683D4A11404160FD
:1004E00001683C4A11400160016821F480210160EB
:1004F000416821F4FE0141604FF41F01816000F06A
:1005000030F835494FF00060086010BD2F4A10B533
:100510005068324B10F00C01314803D0042901D04F
:10052000082901D0036012E05168536801F470118A
:100530004FF0020413F4803F04EB914102D0536862
:100540009B0301D5274B00E0244B594301605168C0
:10055000234AC1F30311121D515C0268CA400260B4
:1005600010BD1A4808B5006800F00200009002288B
:1005700000D0FEE71C48016841F0100101600168ED
:1005800021F003010160016841F0020101600020D7
:1005900001F034FA002001F03FFA4FF4806001F0DE
:1005A00034FA4FF46011002001F011FA012001F03B
:1005B00016FA392001F0D5F90028FAD0022001F00E
:1005C00011FA01F016FA0828FBD108BD001002400C
:1005D0000000FFF8FFFFF6FE08ED00E000127A00D1
:1005E0000000002000093D000020024070B586B0E8
:1005F00001214FF4017001F090FA4FF4004001F036
:1006000020FA0225ADF8145000248DF8174005A9F2
:10061000324801F09AF80120314EADF8140005A9D6
:10062000304601F092F8ADF8145005A9304601F0BB
:100630008CF82C4D284602F03FFA4FF46020CDE9AB
:10064000020403208DF804408DF8100000948DF80A
:1006500005406946284602F04BFA0121284602F07F
:100660006FFA284602F089FA284602F08BFA002831
:10067000FAD1284602F08DFA284602F08FFA0028B7
:10068000FAD106B070BD10B5164C01460723012201
:10069000204602F0ADFA0121204602F086FA02213E
:1006A000204602F079FB0028F9D02046BDE8104032
:1006B00002F0E2BA2DE9F04100250E4607462C462D
:1006C00005E03846FFF7DFFF641C0544E4B2B4429E
:1006D000F7D3B5FBF6F080B2BDE8F0810008014029
:1006E000000C014000240140F0B50E4604460121F3
:1006F00089B0084601F01AFA0121042001F00DFA30
:100700000125ADF81C502820334F8DF81F0007A994
:10071000384601F01AF80121384601F082F8ADF8A8
:100720001040ADF80C600024AE07ADF81240ADF8F3
:100730000E4003A9304601F06BFCADF80040ADF867
:100740000450ADF80240ADF80640ADF808406946E7
:10075000304601F015FE1C208DF8180009208DF898
:1007600019008DF81A408DF81B5006A800F043FFC1
:1007700000220221304601F008FF0121304601F03D
:10078000EFFE09B0F0BD10B502214C07204602F083
:1007900010F918B111490A88521C0A802046BDE898
:1007A0001040022102F011B90C4910B50020088058
:1007B00001218C07204601F0D3FE20460122BDE82E
:1007C0001040022101F0E1BE044800887047002279
:1007D0000221480701F0D9BE0008014014000020A2
:1007E0000121042001F099B90121082001F095B9F7
:1007F0000121102001F091B90121202001F08DB9D3
:1008000001213C2001F089B910B5044604F0BCFE7A
:10081000207861880028606806D000F0F6FF044662
:1008200004F0CCFE204610BD00F0E5FFF7E770B500
:100830000D46044604F0A8FE61886068012D05D0CD
:1008400000F0EFFFBDE8704004F0B8BE00F0E7FF35
:10085000F8E710B50446FFF7D7FF012804D00121BF
:100860002046BDE81040E2E70021F9E7F8B50E4662
:10087000DDE90614037042804660ADF800200320D5
:1008800015468DF8020013B181B110200FE01CB1A4
:10089000012C03D0042002E0282000E048208DF83D
:1008A00003006946304600F050FFF8BD14208DF873
:1008B00003006946304600F048FF2946304614B12F
:1008C00000F0ADFFF8BD00F0ACFFF8BD2DE9FC472E
:1008D00003220021012002F0D3FDF54C606018B323
:1008E000F4A140F20220CDE90001F84BF8A2FDA1ED
:1008F000032006F04FF8A0464FF0FF3900234A4688
:100900001946D8F8040002F08DFF0128F6D1F74E01
:100910000A27F64C0C3C04F037FEA07AE17A8842B4
:100920000FD104F04BFEE9E7F1A140F2FF10CDE951
:100930000001E64BE6A2EBA1002006F02BF8BDE893
:10094000FC87255C401CB0FBF7F107FB1100A0728F
:1009500004F034FE56F825008047DAE72DE9F04729
:100960008A4641884FF4807886B041453BD012DCFE
:10097000102930D008DC012925D0022925D00429EE
:1009800025D008293ED124E0202926D0402926D090
:10099000802937D125E0B1F5805F2CD009DCB1F595
:1009A000007F22D0B1F5806F21D0B1F5006F29D141
:1009B0001FE0B1F5005F20D0B1F5804F1FD0B1F539
:1009C000004F1FD11DE000241CE001241AE0022486
:1009D00018E0032416E0042414E0052412E00624A1
:1009E00010E007240EE008240CE009240AE00A24A1
:1009F00008E00B2406E00C2404E00D2402E00E24A1
:100A000000E00F244068C24908444FF47C7190FB19
:100A1000F1F000F0FF09601F042801D8172515E048
:100A2000A4F10A00052801D828250FE0052C0DD2D5
:100A3000DFE804F0030507090B00062506E007259B
:100A400004E0082502E0092500E00A25A74850F83F
:100A5000241039B12146AFA008F032FC012006B0C5
:100A6000BDE8F0870126924F40F82420012B0AD1DF
:100A7000798806FA04F008437880387818B90A2093
:100A800000F0C0F93E70B86850B989491F2008319C
:100A9000CDE9000100234246A4A1A84803F05BFA77
:100AA0000121084601F039F82146484600F001FFCF
:100AB00000278DF80C7006FA04F48DF80DA002944E
:100AC0008DF80E6002A801F091FF8DF810500820FB
:100AD0008DF811008DF812708DF8136004A800F0E5
:100AE0008AFD204601F0E0FF0020B8E738B5044653
:100AF0007E4850F8240000280FD06D480121A14005
:100B0000428811420AD044708D4C0021204601F0E9
:100B100024FF0121204601F023FD38BD734D0C3D1B
:100B2000A97AEA7A91420DD16946406802F0D1FF74
:100B3000009838B183494FF080500860BFF34F8F61
:100B4000BFF36F8FE87A0A212C54E87A401CB0FB7F
:100B5000F1F201FB1200E87238BD10B5012001F07E
:100B600095FF002807D00020FFF7C0FFBDE8104028
:100B7000012001F099BF10BD10B5022001F086FFE1
:100B8000002807D00120FFF7B1FFBDE81040022088
:100B900001F08ABF10BD10B5042001F077FF0028D6
:100BA00007D00220FFF7A2FFBDE81040042001F0AB
:100BB0007BBF10BD10B5082001F068FF002807D0EA
:100BC0000320FFF793FFBDE81040082001F06CBF41
:100BD00010BD10B5102001F059FF002807D00420E7
:100BE000FFF784FFBDE81040102001F05DBF10BD8D
:100BF00010B5202001F04AFF28B10520FFF776FF4D
:100C0000202001F051FF402001F040FF28B10620D4
:100C1000FFF76CFF402001F047FF802001F036FF16
:100C200028B10720FFF762FF802001F03DFF4FF45D
:100C30008074204601F02AFF28B10820FFF756FFF4
:100C4000204601F031FF4FF40074204601F01EFFF2
:100C5000002807D00920FFF749FF2046BDE81040D3
:100C600001F022BF10BD10B54FF48064204601F0A2
:100C70000DFF28B10A20FFF739FF204601F014FFCD
:100C80004FF40064204601F001FF28B10B20FFF76C
:100C90002DFF204601F008FF4FF48054204601F05C
:100CA000F5FE20B10C20FFF721FF20464CE04DE07F
:100CB000180000206770696F5F69745F7461736BFF
:100CC0005F73656D20696E697400000083BD000864
:100CD0002E2E5C6273705C4750494F5C6770696F81
:100CE0002E6300004E4F5F5441470000D4020020A5
:100CF0006770696F5F69745F7461736B5F73656D53
:100D000020696E6974206572726F722100000000A4
:100D100000F8FEBF63616C6C6261636B2025642028
:100D200068617665207265670A0000007461736B04
:100D30005F6770696F5F697400000000CD0800088C
:100D40000010004004ED00E001F0AEFE4FF400544E
:100D5000204601F09BFE28B10D20FFF7C7FE20467C
:100D600001F0A2FE4FF48044204601F08FFE28B12E
:100D70000E20FFF7BBFE204601F096FE4FF4004424
:100D8000204601F083FE002807D00F20FFF7AEFEBB
:100D90002046BDE8104001F087BE10BDF8B5354EC5
:100DA0000121304601F005FE00282AD000213046FE
:100DB00001F0D6FB304D6878FF281ED02F4CA07A6A
:100DC000E17A88420CD16946686802F082FE009898
:100DD00030B12B4930040860BFF34F8FBFF36F8FE2
:100DE0006878E17A6054E17A0A20491CB1FBF0F29C
:100DF00000FB1210E072FF2068700121304601F004
:100E0000E4FDF8BD7FB504460121102000F08EFE00
:100E1000641E1C48ADF804404FF4FA6100680024D9
:100E2000B0FBF1F0401EADF80000124DADF80640E9
:100E3000ADF802406946284601F0EAF836218DF8FF
:100E40000C100A208DF80D008DF80E4001208DF851
:100E50000F0003A800F0CFFB0121284601F0B5FDEB
:100E600001221146284601F090FB0021284601F09E
:100E700077FB7FBD0010004018000020C802002052
:100E800004ED00E00000002000F095BA382000F0EA
:100E900085BA002000F082BA38B50121102000F098
:100EA0003CFE1020ADF800008DF803000320FE4C3E
:100EB0008DF802006946204600F047FC10212046CC
:100EC00000F0ADFC00F036FAFF2000F074FAF749AC
:100ED0000120C1F8900138BDF4490120C1F890010A
:100EE000FF2000F068BA70B500246FF07F45FF2046
:100EF000FFF7CAFFFF2804D0641CAC42F7D30120DF
:100F000070BD002070BDE94910B50020C1F8900106
:100F1000FFF7E9FF002802D0FFF7DEFF012010BD38
:100F200070B505464FF6FF7401E0641EA4B2FF20C1
:100F3000FFF7AAFFA84202D0002CF6D102E00CB1C4
:100F4000002070BDFF2070BD70B504460D46FE2028
:100F5000FFF7E6FF28B1012070BD00F02CFA04F87D
:100F6000010B6D1EADB24FF0FF00F6D200F023FA78
:100F7000FF2000F020FA002070BD70B50C46054639
:100F8000FFF7B1FF08B1012070BD204600F013FA51
:100F9000FD2C18D000244FF40076285D00F00BFAE9
:100FA000641CA4B2B442F8D3FF2000F004FAFF207E
:100FB00000F001FAFF20FFF767FF00F01F0005288F
:100FC00001D0022070BD002070BD70B516460C46E1
:100FD0000546FFF781FFFFF796FF08B1FF2070BDC0
:100FE00045F0400000F0E7F9200E00F0E4F9C4F30A
:100FF000074000F0E0F9C4F3072000F0DCF9E0B2AC
:1010000000F0D9F9304600F0D6F90C2D02D1FF20BE
:1010100000F0D1F91F24FF20FFF736FF0106DED5CF
:10102000641EE4B2F7D270BD70B5054601220021FE
:101030000A20FFF7CAFF040004D110212846FFF759
:1010400083FF0446FFF748FF0CB1012070BD00206C
:1010500070BD70B50546012200210920FFF7B5FFDC
:10106000040004D110212846FFF76EFF0446FFF765
:1010700033FF0CB1012070BD002070BD1FB5684664
:10108000FFF7E7FF10B1002004B010BD9DF800107D
:101090000120B0EB911F09D19DF808209DF809109F
:1010A00000EB0220084400048009EDE79DF80500EC
:1010B0009DF80A1000F00F0000EBD1109DF8091008
:1010C0009DF8072001F0030100EB41019DF80800A5
:1010D000800900EB82009DF8062002F0030200EB7D
:1010E0008220401CC91F8840CEE72DE9F843FFF756
:1010F000D3FE382000F052F90024FF2000F05BF905
:10110000641CA4B20A2CF8D31424002195220846AA
:10111000FFF75BFF0546012802D0641EA4B2F4D29B
:10112000634E0027012D37707AD187224FF4D57195
:101130000820FFF74AFF4FF6FE7801281ED0012253
:1011400000213720FFF741FF012200212920FFF76E
:101150003CFF01284FD80220307044460122002174
:101160003720FFF732FF012200212920FFF72DFF52
:1011700005004DD0641EA4B2F0D249E000246F46B1
:10118000FF20FFF781FE3855641CA4B2042CF7D36E
:101190009DF80200012843D19DF80300AA283FD101
:1011A00044464FF08048012200213720FFF70DFF11
:1011B000012241462920FFF708FF050002D0641EE6
:1011C000A4B2F0D2B4B1012200213A20FFF7FDFE13
:1011D00080B90024FF20FFF757FE3855641CA4B2E5
:1011E000042CF7D39DF80000400601D5062000E04E
:1011F0000420307014E001203070444601220021A8
:101200001046FFF7E2FE050002D0641EA4B2F5D23C
:101210002CB1012251021020FFF7D7FE00B1377028
:10122000FFF75AFE002000F0B9F8307810B1002026
:10123000BDE8F8830DB12846FAE7AA20F8E72DE9C2
:10124000F04106461A4815460078062800D04902A3
:101250004FF40077012D4FF0010219D01220FFF753
:10126000B4FE39463046FFF76FFE6D1E044606F5A4
:10127000007615F0FF0501D0002CF2D001220021EC
:101280000C20FFF7A2FEFFF727FE2046BDE8F08105
:101290001120FFF79AFE0400F5D139463046FFF7DA
:1012A00053FE0446EFE70000001001400000224218
:1012B0002400002070B506461D4815460C460078EF
:1012C000062800D04C02012D13D0012809D001229C
:1012D00000213720FFF779FE012229461720FFF76A
:1012E00074FE012221461920FFF76FFE04000AD088
:1012F0001AE0012221461820FFF767FE040013D1EF
:10130000FE2130460DE0FC213046FFF736FE6D1E13
:1013100006F5007615F0FF0501D00028F3D0FD2179
:101320000020FFF72AFE0446FFF7D6FD204670BDD9
:101330002400002038B5012141F2040000F0EDFB4B
:10134000E020ADF8000018208DF8030003202D4C9C
:101350008DF802006946204600F0F7F9E0212046AA
:1013600000F05DFA284800214FF48272018042802B
:1013700081800222C28001220281520242813822EF
:101380008281C18107210182204C0146204601F063
:101390004FFD0121204601F0C7FD38BD10B51A49A7
:1013A0001A4C8881204601F043FD2046BDE81040DC
:1013B000012101F0B9BD70B506460024134D03E0CC
:1013C000641CE4B2C82C0FD80221284601F018FE94
:1013D0000028F5D03146284601F0CEFD002405E076
:1013E000641CE4B2C82C01D9002070BD012128463C
:1013F00001F006FE0028F3D0284601F0BFFDC0B280
:1014000070BD0000000801401403002000300140BE
:10141000704770B52D4D04461021284600F0FFF9A5
:101420002B490A885006FCD52949E0B2091D0880DD
:101430001021284600F0F5F9204670BD70B506462B
:10144000012186B0480400F071FB0121042000F066
:1014500064FB0424ADF8004003208DF8020018203E
:101460001A4D8DF803006946284600F06EF90820F1
:10147000ADF800008DF803406946284600F065F994
:1014800010208DF80300ADF800006946284600F0F2
:101490005CF91021284600F0C4F90020ADF80800DE
:1014A000ADF80A00ADF80C00ADF810000C20084CA7
:1014B000ADF80E00019601A9204600F0ADFB012118
:1014C000204600F01CFC06B070BD00000008014082
:1014D0000044004010B503F063FA012803D0BDE8D2
:1014E000104004F07CB810BD10B5042000F0C3F823
:1014F0002B482C492C4A0068B0FBF1F3B0FBF1F10A
:101500004FF47A7041431370012050804FF0E02077
:10151000026942F0020202614161016941F0010188
:10152000016110BD70B54FF0E02500216C691E4AC5
:10153000AB6912785043AA699A42FCD002D2A3EB5D
:10154000020302E0A4EB020633441944134681422D
:10155000F1D370BD70B5044603F022FA01280CD017
:10156000114D6888844203D3B4FBF0F002F0B5FE5D
:101570006888B4FBF0F100FB11444FF47A706043CB
:10158000BDE87040CEE770B5054600244FF47A768A
:1015900003E03046FFF7C6FF641CAC42F9D370BDD0
:1015A0000000002040420F002C0000200948804726
:1015B00009480047FEE7FEE7FEE7FEE7FEE7FEE735
:1015C000FEE7FEE7FEE7FEE704480549054A064B4D
:1015D00070470000CD04000831010008D0920020BF
:1015E000D0980020D0940020D094002028490843AF
:1015F00028490860704730B50F23C278017801256B
:10160000F2B1244A126801F1E02102F4E062C2F56D
:10161000E062120AC2F10404D3404278A240847806
:101620001C401443220181F80024007800F01F01BF
:101630008D404009800000F1E020C0F8005130BD2D
:1016400001F01F0085404809800000F1E020C0F84B
:10165000805130BD104A114001430E48001F016007
:1016600070470C4A121D0029116801D0014300E0A7
:101670008143116070474FF0E0210428086903D0CE
:1016800020F004000861704740F00400FAE7000011
:101690000000FA050CED00E080FFFF1F8F4910B538
:1016A000884206D10121042000F049FA00210420DB
:1016B0003BE08B49884206D10121082000F03FFA27
:1016C0000021082031E08749884206D101211020FD
:1016D00000F035FA0021102027E08349884206D126
:1016E0000121202000F02BFA002120201DE07F495D
:1016F000884206D10121402000F021FA002140203B
:1017000013E07B49884206D10121802000F017FABE
:101710000021802009E0774988420AD184150121FF
:10172000204600F00CFA00212046BDE8104000F0F1
:1017300006BA10BD10B50121084600F000FA0021DC
:10174000BDE81040012000F0FAB9F0B5CC780022D5
:1017500004F00F03E40601D58C7823430C784FF096
:101760000F0C14F0FF0F4FF0010E1BD005680E8810
:101770000EFA02F42640A64210D196000CFA06F7A3
:1017800025EA070703FA06F5CE783D43282E02D056
:10179000482E02D002E0446100E00461521C082A95
:1017A000E5D305600A88FF2A1CD94468002202F1AB
:1017B00008060EFA06F50E882E40AE420ED19600AF
:1017C0000CFA06F7BC4303FA06F7CE783C43282E02
:1017D00000D14561CE78482E00D10561521C082AFF
:1017E000E5D34460F0BD4FF6FF71018002218170A6
:1017F0000421C17070470246002092680A4200D05E
:1018000001207047806880B2704702460020D2688D
:101810000A4200D001207047C06880B27047016161
:101820007047416170470AB101617047416170477B
:10183000C160704741F48032826181618261816957
:10184000806970472C4B10B51A684FF6807422409F
:1018500042EA00100843186010BD2849C86170476B
:10186000F0B5254C002801DAE36900E06368450D16
:101870002E0185B2C0F30157B540C0F30342032FD8
:1018800005D0C6020AD503269640B34307E023F0ED
:101890007062636823F07063636002E0AB4343F0FF
:1018A000706201B12A43002801DAE261F0BD626092
:1018B000F0BD10B58A0721F003040F49120F21442F
:1018C0000F238C6893409C438C608B68904003434B
:1018D0008B6010BD0949C1F8DC0070470008014069
:1018E000000C0140001001400014014000180140AC
:1018F000001C014000200140000001400000204287
:10190000A548016841F0010101604168A34A114006
:1019100041600168A24A11400160016821F4802100
:101920000160416821F4FE0141604FF41F018160B4
:10193000704799490A6822F480320A600A6822F4E2
:1019400080220A60B0F5803F07D0B0F5802F03D128
:10195000086840F4A02008607047086840F48030B0
:10196000F9E70346002059098B4A01290AD00229C8
:101970000AD0516A03F01F02012393400B4200D0AA
:10198000012070471168F5E7116AF3E718B50020E8
:101990004FF4A06400903120FFF7E3FF0099491C49
:1019A0000091A14201D00028F5D03120FFF7D9FFE6
:1019B000002800D0012018BD774A116821F0F801F5
:1019C00041EAC00010607047764908607047724B6A
:1019D0005A68084322F47C121043586070477149DA
:1019E000086670476C4A516821F003010143516059
:1019F00070476948406800F00C007047664A5168BB
:101A000021F0F001014351607047634A516821F4AD
:101A1000E0610143516070475F4A516821F46051B1
:101A200041EAC000506070475B4A0029517A01D0FA
:101A3000014300E08143517270475A49C1F8D80010
:101A40007047554A516821F4404101435160704745
:101A50005149002281F8202081F82020012802D05D
:101A6000042802D1052081F8200070474E49086003
:101A7000704749490A6A02430A6270474A49443931
:101A80000860704730B5444A5168484B11F00C016A
:101A900003D0042901D0082901D0036012E0516865
:101AA000536801F470114FF0020413F4803F04EB0B
:101AB000914102D053689B0301D53D4B00E03B4B65
:101AC0005943016051680F2303EA1111394B5C5CE3
:101AD0000168E14041605468072505EA14241C5D53
:101AE00021FA04F48460546805EAD4241B5DD940CB
:101AF000C1605268032303EA92322E4B1B1F9A5C8B
:101B0000B1FBF2F1016130BD234A0029516901D0D6
:101B1000014300E08143516170471F4A00299169E8
:101B200001D0014300E08143916170471A4A0029C6
:101B3000D16901D0014300E08143D1617047164A69
:101B40000029D16801D0014300E08143D160704792
:101B5000114A0029116901D0014300E0814311615C
:101B6000704711494039086070470E49C864704792
:101B70000949C87170470848416A41F08071416263
:101B80007047054A0146002092680A4200D00120B1
:101B90007047014988727047001002400000FFF84A
:101BA000FFFFF6FE000042428004424200127A002B
:101BB00000093D0034000020C44910B588420AD114
:101BC00001218C032046FFF7BAFF2046BDE81040F4
:101BD0000021FFF7B4BFBE49884202D101214C0465
:101BE00010E0BC49884202D101218C040AE0BA49C4
:101BF000884202D10121CC0404E0B84988420AD1CC
:101C000001210C052046FFF7A3FF2046BDE8104048
:101C10000021FFF79DBF10BD30B50446008A85B096
:101C20000D464CF6FF710840E98801432182A089E6
:101C30004EF6F3110840A9882A8911436A890243A4
:101C40001143A181A08A4FF6FF410840A9890143B1
:101C5000A1826846FFF716FF9C48844201D1039891
:101C600000E00298A189090400EBC00101EB00101B
:101C7000296801D5490000E08900B0FBF1F0642239
:101C8000B0FBF2F109010B096FF018056B4300EB93
:101C90008300A3891D044FF0320306D503EBC00077
:101CA000B0FBF2F000F0070005E003EB0010B0FB22
:101CB000F2F000F00F000843208105B030BD4FF472
:101CC0001651016000218180C18001810C22428176
:101CD0008181704710B5028A4FF2FF031A400B88CA
:101CE0004C8823438C88C9880C43234313430382C5
:101CF00010BD0021018041808180C1807047002992
:101D0000818902D041F4005101E021F40051818128
:101D1000704710B5C1F3421301F01F040121A14027
:101D2000012B07D0022B07D01430002A026805D0FF
:101D30000A4304E00C30F8E71030F6E78A4302600B
:101D400010BD002A828A01D00A4300E08A438282C1
:101D50007047028A22F00F020282028A0A4302823C
:101D60007047828922F40062828182890A438281DB
:101D700070470029818902D041F0020101E021F081
:101D8000020181817047028A22F020020282028AC7
:101D90000A43028270470029018A02D041F480413F
:101DA00001E021F4804101827047C1F30801818084
:101DB00070478088C0F308007047818941F00101B5
:101DC00081817047028BD2B20283028B42EA0121E9
:101DD00001837047028B02F47F420283028B0A4325
:101DE000028370470029818A02D041F0200101E07E
:101DF00021F02001818270470029818A02D041F0C0
:101E0000100101E021F01001818270470029818AD0
:101E100002D041F0080101E021F008018182704701
:101E20000029818902D041F4004101E0C1F30E0193
:101E3000818170470029818A02D041F4006101E06C
:101E400021F4006181827047828A22F0040282823A
:101E5000828A0A43828270470029818A02D041F037
:101E6000020101E021F00201818270470246002058
:101E700012880A4200D001207047C9430180704790
:101E800070B501F01F0501260024C1F3421306FAC4
:101E900005F2012B0FD0022B0FD0838A4FEA1121BC
:101EA0000088134206FA01F600EA060001D000B1EC
:101EB0000124204670BD8389F0E7038AEEE70A0A11
:101EC00001219140C9430180704700000038014062
:101ED0000044004000480040004C004000500040DA
:101EE000F94910B5884202D10121C41486E0B0F14D
:101EF000804F09D0F54988420DD101210220FFF71A
:101F000027FE0021022064E001210846FFF720FEA1
:101F1000002101205DE0EE49884206D10121042024
:101F2000FFF716FE0021042053E0EA49884206D15B
:101F300001210820FFF70CFE0021082049E0E649B6
:101F4000884206D101211020FFF702FE0021102057
:101F50003FE0E249884206D101212020FFF7F8FD49
:101F60000021202035E0DE49884202D101214414BD
:101F700044E0DC49884202D10121CC043EE0DA4948
:101F8000884202D101210C0538E0D849884202D1AB
:101F900001214C0532E0D649884206D1012140207A
:101FA000FFF7D6FD0021402013E0D249884206D138
:101FB00001218020FFF7CCFD0021802009E0CE49DF
:101FC00088420AD1841501212046FFF7C1FD002176
:101FD0002046BDE81040FFF7BBBDC849884202D18A
:101FE00001210C040AE0C649884202D101214C04B7
:101FF00004E0C44988420AD101218C042046FFF73D
:102000009EFD2046BDE810400021FFF798BD10BDA1
:1020100030B50288AC4CB24DA0420DD0A8420BD0D6
:10202000B0F1804F08D0A94B984205D0A84B9842F8
:1020300002D0A84B984203D122F070034A881A4379
:10204000A54B984206D0A54B984203D022F440738A
:10205000CA881A4302808A8882850A880285A0423B
:102060000AD0A84208D0A54A904205D0A44A90427E
:1020700002D0A44A904201D1097A018601218182CD
:1020800030BD30B5028C22F001020284028C8388BC
:10209000048B22F0020224F073050C882C430D8976
:1020A00015434A882A43884DA8420BD08C4DA8423C
:1020B00008D0924DA84205D0914DA84202D0914D32
:1020C000A8420DD122F008054A8923F440732A431F
:1020D00022F004058A882A438D891D43CB892B432E
:1020E00083800483C9888186028430BD70B5028CE8
:1020F00022F010020284028C8388048B0D8824F461
:10210000E6464FF6FF7404EA052535430E8922F0B2
:10211000200204EA061616434A8804EA02123243F1
:10212000694EB04202D06E4EB04215D122F0800608
:102130004A8923F4406304EA0212324322F0400643
:102140008A8804EA021232438E8904EA86061E4314
:10215000CB8904EA8303334383800583C9880187DD
:10216000028470BD70B5028C22F480720284028CED
:102170008388848B0D8824F0730425430E894FF6E1
:10218000FF7422F4007204EA062616434A8804EA21
:10219000022232434C4EB04202D0514EB04215D1D1
:1021A00022F400664A8923F4405304EA02223243AF
:1021B00022F480668A8804EA022232438E8904EA85
:1021C00006161E43CB8904EA0313334383808583B9
:1021D000C9888187028470BD70B5028C22F4805258
:1021E0000284058C8288838B0C8823F4E6464FF6A4
:1021F000FF7303EA0424344325F400560D8903EAEF
:10220000053535434E8803EA06362E432E4DA84247
:1022100002D0334DA84205D122F480458A8903EAD1
:1022200082122A4382808483C988A0F840100684E1
:1022300070BD828B22F440628283828B4FF6FF73E3
:1022400003EA01210A4382837047828B22F00C0249
:102250008283828B0A4382837047028B22F440621E
:102260000283028B4FF6FF7303EA01210A430283C4
:102270007047F0B5048C24F010040484078B048CA0
:102280004FF6FF7527F4734705EA03333B4305EA2E
:1022900002221A430C4B05EA011698420ED0104B4D
:1022A00098420BD0B0F1804F08D0084B984205D02F
:1022B000074B984202D0074B984225D124F02001C9
:1022C000314341F0100124E0002C014000040040A3
:1022D00000080040000C00400010004000140040C6
:1022E00000340140004C01400050014000540140C6
:1022F00000180040001C0040002000400040014049
:10230000004401400048014024F0A0030B4343F087
:10231000100102830184F0BD028B22F00C020283C3
:10232000028B0A430283704770B5048C24F00104C9
:102330000484058B048C4FF6FF7606EA03131343DF
:1023400025F0F305F84A2B4390420ED0F74A90420D
:102350000BD0B0F1804F08D0F54A904205D0F54A35
:10236000904202D0F44A904202D124F0020201E0ED
:1023700024F00A020A4342F001010383018470BD84
:102380002DE9F84F0D4604460888E74FDFF89CC357
:10239000DFF89C83DFF89C934988AA882B894FF04B
:1023A000804A48B304282FD04FF6FF76082893467A
:1023B00032D0208C9E4620F480502084A38B208C29
:1023C00006EA0132009223F4734306EA0B221A4311
:1023D00006EA0E331343BC420AD0644508D0544584
:1023E00006D0444504D04C4502D0D34A944242D151
:1023F00020F40050009940E02046FFF795FFE9885F
:102400002046BDE8F84F87E72046FFF732FFE9880E
:102410002046BDE8F84F20E7208C20F4807020840F
:10242000B4F81CE0208C06EA031306EA01222EF021
:10243000F30E43EA0B0343EA0E030092BC420AD0B8
:10244000644508D0544506D0444504D04C4502D0DC
:10245000B94A944203D120F40070009901E020F4BD
:102460002060084340F48070A3832084E9882046DC
:10247000BDE8F84FE9E620F40240084340F48050FC
:10248000A3832084E9882046BDE8F84FD1E62DE9F2
:10249000F0410C46002649880746012501B902266D
:1024A000A288012A00D102252088238900283846E5
:1024B00010D0FFF7DEFEE1883846FFF7CEFE238915
:1024C0002A4631463846FFF72FFFE1883846BDE8F7
:1024D000F04121E7FFF728FFE1883846FFF71CFFAE
:1024E00023892A4631463846FFF7C3FEE18838463D
:1024F000BDE8F041B1E610B50A884B88CC881A4394
:102500008B8823431A430B891A434B8989891A43C1
:102510000A43A0F8442010BD4FF6FF7181800021CE
:102520000180C1804180017270470021018041809B
:102530008180C180018141818181C18170470021F9
:102540000180418001228280C18001817047002189
:10255000018041808180C1800181418181817047FA
:102560000029018802D041F0010101E021F00101C0
:1025700001807047002930F8441F02D041F4004127
:1025800001E0C1F30E0101807047002A828901D069
:102590000A4300E08A438281704781827047114379
:1025A000A0F848107047002A828901D00A4300E051
:1025B0008A4382817047018921F0070101817047B8
:1025C000028922F070020A430281704700B5034677
:1025D000FFF7F6FF188940F00700188100BD70B5BD
:1025E00016460D46602904464FF0010231460AD0D6
:1025F000FFF79AFE29462046FFF7E2FF208940F0C8
:102600000700208170BDFFF734FEF3E730B5048981
:102610004FF6FF7505EA03231343E4B20B4323434C
:10262000038130BD10B50446FFF7F0FF208940F06C
:102630007700208110BD10B50446FFF7E7FF208921
:1026400040F48040208110BD01858282704702885D
:1026500022F070020A430280704770B50589048B2E
:10266000068C25F007050D434FF6FC410C4040F267
:1026700001110C434FF6FF7101EA031126F0220607
:102680001143314305810483018470BD028B22F024
:1026900070020A4302837047028B4FF6FF7322F4E5
:1026A000E04203EA0121114301837047828B22F04B
:1026B00070020A4382837047828B4FF6FF7322F4C5
:1026C000E04203EA01211143818370470029018818
:1026D00002D041F0800101E021F0800101807047CB
:1026E0000029818802D041F0040101E021F00401B9
:1026F000818070470029818802D041F0080101E003
:1027000021F00801818070470029818802D041F0C2
:10271000010101E021F0010181807047028B22F06C
:1027200008020A4302837047002C01400034014034
:102730000004004000080040000C0040028B4FF6EF
:10274000FF7322F4006203EA012111430183EAE7E7
:10275000828B22F008020A438283E4E7828B4FF6E1
:10276000FF7322F4006203EA012111438183DAE757
:10277000028B22F004020A430283D4E7028B4FF655
:10278000FF7322F4806203EA012111430183CAE747
:10279000828B22F004020A438283C4E7828B4FF6C5
:1027A000FF7322F4806203EA012111438183BAE7B7
:1027B000028B22F080020A430283B4E7028B4FF6B9
:1027C000FF73C2F30E0203EA012111430183AAE75A
:1027D000828B22F080020A438283A4E7828B4FF629
:1027E000FF73C2F30E0203EA0121114381839AE7CA
:1027F000028C22F002020A43028494E7028C22F047
:1028000008020A4302848EE7028C4FF6FF7322F01F
:10281000200203EA01111143018484E7028C4FF680
:10282000FF7322F0800203EA0111114301847AE769
:10283000028C4FF6FF7322F4007203EA0121114368
:10284000018470E7028C4FF6FF7322F4006203EA02
:1028500001211143018466E7028C4FF6FF7322F4D5
:10286000005203EA0131114301845CE710B50123F2
:10287000048C8B409C430484038C8A401343038460
:1028800010BD10B50423048C8B409C430484038C3E
:102890008A401343038410BD30B50124058C00F138
:1028A00018038C40A543058489B108290FD0091F5E
:1028B000C1F34E001844016821F4E0410160016851
:1028C0004FF6FF7303EA02221143016030BD03EBB0
:1028D0005100016821F0700101600168F4E70029EE
:1028E000018802D041F0020101E021F002010180E3
:1028F00019E70029018802D041F0040101E021F02C
:10290000040101800FE70029818802D041F0800195
:1029100001E021F08001818005E7028822F00802B1
:10292000028002880A430280FDE6828822F070025B
:10293000828082880A438280F5E6028922F00702BB
:10294000028102890A430281EDE6028922F08002B7
:10295000028102890A430281E5E68184E3E68185FA
:10296000E1E68186DFE60187DDE68187DBE6A0F828
:102970004010D8E6028822F44072028002880A439E
:102980000280D0E6808ECEE6008FCCE6808FCAE64D
:10299000B0F84000C7E6808CC5E6008DC3E602466D
:1029A0000020128A0A4200D00120BCE6C9430182FD
:1029B000B9E602460020138A92890B4202EA01021C
:1029C00002D0002A00D00120ADE6C9430182AAE668
:1029D000374900200860091D0860091D0860091DAD
:1029E00008603349334814310860704730B5304AC5
:1029F0008379016853B313688B431360111D0B680F
:102A00000468A3430B60017911440B6804682343F5
:102A10000B60274B083319680468A14319601C1D1B
:102A200021680568A94321604179102905D0114426
:102A30000A68006802430A6030BD196802681143E1
:102A40001960216800680143216030BD007910449D
:102A500002688A43026030BD0021016001710C22CE
:102A6000427181717047124910310A6802430A604D
:102A7000704701460E4A0020143212680A4200D004
:102A8000012070470A49143108607047084A01461E
:102A900000201268064B0A4014331B680B4202D018
:102AA000002A00D0012070470149143108607047A6
:102AB00000040140FFFF0F00C54910B5884202D154
:102AC000012144150AE0C349884202D101210415BD
:102AD00004E0C14988420AD10121CC032046FFF716
:102AE0002EF82046BDE810400021FFF728B810BDA1
:102AF00010B54268B94B0C791A400B6842EA0422BF
:102B0000134343608268B64B1A40D1E90243234322
:102B10004C7942EA440213438360C26A097C22F47E
:102B20007002491EC9B242EA0151C16210BD0021C2
:102B30000160017141718160C160012101747047C0
:102B40000029816802D041F0010101E021F001017A
:102B5000816070470029816802D041F4807101E0F2
:102B600021F4807181607047002A4268C9B201D0A7
:102B70000A4300E08A4342607047816841F00801DF
:102B800081607047014600208968090700D501204F
:102B90007047816841F00401816070470146002060
:102BA0008968490700D5012070470029816802D053
:102BB00041F4A00101E021F4A001816070470146C9
:102BC00000208968490200D5012070474268491EEB
:102BD00022F4604242EA4131416070470029416875
:102BE00002D041F4006101E021F4006141607047CE
:102BF00070B5072609290AD9C568A1F10A0404EBB2
:102C00004404A640B543A3401D43C56007E00569E1
:102C100001EB4104A640B543A3401D4305611F23BA
:102C2000072A09D2446B521E02EB820293409C4356
:102C300091400C43446370BD0D2A09D2046BD21F2E
:102C400002EB820293409C4391400C43046370BDAD
:102C5000C46A0D3A02EB820293409C4391400C43BC
:102C6000C46270BD0029816802D041F4801101E086
:102C700021F4801181607047C06C80B27047544865
:102C80004C30006870470029416802D041F48061EF
:102C900001E021F48061416070470029416802D061
:102CA00041F4805101E021F4805141607047826815
:102CB00022F4E0420A43826070470029816802D012
:102CC00041F4004101E021F4004181607047002996
:102CD000816802D041F4021101E021F40211816007
:102CE0007047014600208968890200D5012070479D
:102CF00070B5072609290AD9C568A1F10A0404EBB1
:102D00004404A640B543A3401D43C56007E00569E0
:102D100001EB4104A640B543A3401D430561836B0D
:102D2000C3F30154121B921C02EB82021F24944035
:102D3000A34391400B43836370BD826B491E22F411
:102D4000401242EA01518163704708B5084400907F
:102D5000026008BD08B5084428300090006880B2C1
:102D600008BD42681F4B1A400A43426070474162E7
:102D700082627047426822F01F020A434260704735
:102D8000134908310028086802D040F4000001E02F
:102D900020F40000086070470246002012680A42D2
:102DA00000D001207047C9430160704710B502464A
:102DB000002054680B0AC9B20C401168194202D0B5
:102DC000002C00D0012010BD6FEA11210160704776
:102DD0000024014000280140003C0140FFFEF0FFBC
:102DE000FDF7F1FFFFFD3FFF994910B588420AD179
:102DF000841401212046FEF7A2FE2046BDE81040C3
:102E00000021FEF79CBE9349884202D1012104149F
:102E100004E0914988420AD10121C4132046FEF7FB
:102E200097FE2046BDE810400021FEF791BE10BD80
:102E300030B502884C8802F441530A88CD88224379
:102E40008C882C4322430C8922434C8922438C8951
:102E50002243CC8922431A430280828B22F40062EF
:102E60008283098A018230BDF0B505460C460220F6
:102E70000021AA8B85B001264FF240031A40AA8395
:102E80002884AF8BA268022A21D0A08800B1022634
:102E90006846FEF7F7FDE1880098B1F5007F2CD079
:102EA0007101B0FBF1F000EB8000A1684000B0FBC5
:102EB000F1F0401D80B20A21B0FBF1F000F00101F9
:102EC000401A4FF6FF72C0F34F0002EA0121821E42
:102ED000FE2A01D302200021E288084302432A840B
:102EE00020886188A2890843A18811430843384398
:102EF00040F40060A88305B0F0BD000AD3E70021CC
:102F0000018041808180C180018141818181C181B5
:102F10000721018270470021018041808180C180AA
:102F200002228260818170470029018802D041F02D
:102F3000400101E021F04001018070470029818BB0
:102F400002D041F4806101E021F480618183704707
:102F5000090901238B40002A828899B201D00A43D3
:102F600000E08A4382807047002A828801D00A43A9
:102F700000E08A4382807047818170478089704772
:102F8000A1F57E420188FF3A02D041F4807101E050
:102F900021F48071018070470029818802D041F0BE
:102FA000040101E021F0040181807047028822F4CD
:102FB0000062028002880A4302807047018841F45F
:102FC0008051018070470029018802D041F40051EE
:102FD00001E021F4005101807047012901D0008BEC
:102FE0007047808A7047008A7047B1F5804F01882A
:102FF00003D021F480410180704741F48041FAE719
:103000000246002012890A4200D001207047C943BD
:103010000181704730B501F00F030125024605FA22
:1030200003F40020A3B2090905FA01F49188A4B2BF
:10303000128921401A4202D0002900D0012030BD5F
:1030400001F00F0201219140C94301817047000046
:103050000030014000380040003C004010B518200E
:1030600002F042FB040004D000202060201D00F08C
:1030700083F9204610BD2DE9F04100258846040063
:1030800005D140F21D22B0A1B6A006F019F95FEA01
:10309000186005D040F21E22ABA1B2A006F010F9D4
:1030A000261D04F10C0701F0B9F82168F06841EA27
:1030B0000801216017E0D0E9001601F07F425301BA
:1030C000236821F07F4102D40B4203D10AE031EAA8
:1030D000030307D1D20100D50D43216841F00071EF
:1030E00001F0D9FB3046B842E5D12068A843206002
:1030F00001F006F82068BDE8F0812DE9F0410446B2
:103100001F4615468846100E04D0D7228EA195A0E2
:1031100006F0D6F825B9D8228BA192A006F0D0F8F7
:1031200001F03EFC28B927B1DB2287A18DA006F073
:10313000C7F801F073F8204641462668FFF79BFF69
:1031400046EA080635EA060008D067B145F0A061F6
:103150003A46201D01F029FB002605E02068A8431F
:103160000027206000E0266800F0CAFFD7B138B918
:1031700080494FF080500860BFF34F8FBFF36F8FCF
:1031800001F09FFC064680010AD402F0FDF9266892
:1031900035EA060002D126EA0500206002F00EFAA8
:1031A00026F07F463046A6E72DE9F0479A46089F6D
:1031B00091460D4604004FF0000605D140F24D1235
:1031C00061A168A006F07CF8280E05D04FF4A77224
:1031D0005DA164A006F074F82DB940F24F125AA117
:1031E00060A006F06DF801F0DBFB30B92FB14FF4B1
:1031F000A97255A15BA006F063F801F00FF8D4F8AE
:10320000008052462946404600F094F840B100271D
:103210004646B9F1000F15D02068A843206011E0A0
:10322000AFB1B9F1000F01D04FF08076BAF1000FC5
:1032300001D046F0806645EA06013A46201D01F0BD
:10324000B4FA002600F05CFF1FB310B109E0464657
:10325000F8E748494FF080500860BFF34F8FBFF345
:103260006F8F01F02EFC0646800110D402F08CF91D
:10327000266852462946304600F05CF828B1B9F17C
:10328000000F02D02068A843206002F097F926F0D2
:103290007F463046BDE8F08770B50E46040005D184
:1032A00040F2DF1228A12FA006F00AF8300E05D058
:1032B0004FF4F07224A12BA006F002F802F064F99A
:1032C000256825EA0600206002F078F9284670BDDE
:1032D0005022EFF3118182F31188BFF34F8FBFF3B8
:1032E0006F8F006881F3118870472DE9F041064621
:1032F000041D00F093FF04F1080540F27D274FF014
:1033000000780BE0E068A84204D13A460EA115A06F
:1033100005F0D6FF4146E06801F0BDFA20680028BC
:10332000F0D1304602F04BFABDE8F04100F0E8BEC3
:10333000A1E6B1E70346002012B1994302D07047DD
:103340000B42FCD0012070472E2E5C467265655200
:10335000544F535C6576656E745F67726F757073FA
:103360002E6300004572726F723A25732C25640D2E
:103370000A00000004ED00E000F108014FF0FF3208
:10338000C0E90112C16001610021016070470021A4
:103390000161704742684A6093688B609368596026
:1033A000916008610168491C0160704730B50C6884
:1033B000621C02D000F1080202E0026904E01A4631
:1033C00053681D68A542FAD953684B6099608A60BA
:1033D000516008610168491C016030BDD0E90132CB
:1033E00001699A60D0E901235A604A68824201D19A
:1033F00082684A60002202610868401E08607047C7
:1034000070B50D46040005D140F21B12F9A1FEA0D3
:1034100005F056FF02F0B8F8D4E90F20216802FB4E
:10342000001161600021A1632168A1600A46D4E90E
:103430000F01401E00FB0121E16021464FF0FF30EB
:1034400001F8440F487004F110004DB1FFF794FFEC
:1034500004F12400FFF790FF02F0B0F8012070BDE6
:1034600021690029F8D001F0E2F90028F4D0EA49F6
:103470004FF080500860BFF34F8FBFF36F8FEBE7C3
:1034800070B50E46050005D14FF4C472D9A1DEA077
:1034900005F016FFA6B105FB06F04C3002F024F94A
:1034A00004000CD004F14C0066B12060C4E90F5652
:1034B00020460121FFF7A4FF00212046A16470BD32
:1034C0000020EAE72460F1E72DE9F041856B17461B
:1034D00004460026026C82B1C7B1E06806F038F9F4
:1034E000E168206C091AE1602268914202D26168A9
:1034F000081AE060022F16D017E02068A8B96068AB
:1035000001F097FA0646002060600EE0A06806F021
:103510001FF9216CA0680844A0606168884204D348
:103520002068A06001E005B16D1E6D1CA5633046EA
:10353000BDE8F0812DE9F3410F4600980026846C28
:103540002CB940F6CE12ABA1AFA005F0B9FEA06B2E
:10355000E16B884205D340F6CF12A6A1AAA005F0E0
:10356000AFFEA06BE16B88420CD294F945503A460D
:1035700069462046FFF7A8FF0646681C05D06D1C6B
:1035800084F845503046BDE8FC81606A0028F9D0D7
:1035900004F1240001F04BF90028F3D00126F1E7F3
:1035A0002DE9F041044601F0EFFF94F9455004F194
:1035B000240610E0A06C20B100212046FFF7BAFFDE
:1035C00004E0606A48B1304601F031F908B101F019
:1035D000E0F96D1E6DB2002DECDC4FF0FF3684F883
:1035E000456001F0EBFF01F0CFFF94F9445004F186
:1035F000100709E0206948B1384601F018F908B110
:1036000001F0C7F96D1E6DB2002DF3DC84F8446043
:10361000BDE8F04101F0D2BF2DE9FF4F83B09946DC
:103620008B4604004FF0000605D140F2D92271A16B
:1036300075A005F045FEBBF1000F07D1206C28B145
:1036400040F2DA226BA170A005F03AFEB9F1020F48
:1036500008D1E06B012805D040F2DB2265A16AA009
:1036600005F02EFE01F09CF938B9059828B140F21A
:10367000DE2260A164A005F023FE4FF0000A4FF0A7
:103680008057DFF8948101F07FFFA06BE16B8842E7
:1036900006D3B9F1020F03D0059800B316B325E0A5
:1036A0004A4659462046FFF70FFFA16C21B1494613
:1036B0002046FFF73FFF05E0616A19B104F12400DD
:1036C00001F0B5F828B1C8F80070BFF34F8FBFF311
:1036D0006F8F01F073FF012007B0BDE8F08F01F09C
:1036E0006DFF21E0684601F010F9012601F066FF48
:1036F00000F094FD01F048FF94F94400401C01D112
:1037000084F844A094F94500401C01D184F845A0F8
:1037100001F054FF05A9684601F008F930B12046D0
:10372000FFF73EFF00F0ECFC0020D5E701F02CFF96
:10373000A06BE16B884201D1012500E0002501F07A
:103740003DFF95B104F11000059901F017F82046EE
:10375000FFF726FF00F0D4FC002894D1C8F80070D1
:10376000BFF34F8FBFF36F8F8DE72046FFF718FF32
:1037700000F0C6FC87E710B5024600210120FFF7E4
:103780007FFE041E07D00021416001600B460A46FF
:10379000C160FFF741FF204610BD10B5040005D100
:1037A00040F2412213A118A005F08AFD01F0F5F8BE
:1037B000616888420BD1E068401EE06005D10023BB
:1037C0001A4619462046FFF727FF012010BD0020AA
:1037D00010BD30B4026C0B46002A21D0C1681144E0
:1037E000C1604468A14201D30168C16030BC184681
:1037F00014E000002E2E5C4672656552544F535CF7
:1038000071756575652E63004572726F723A257326
:103810002C25640D0A00000004ED00E005F098BFBF
:1038200030BC70472DE9FF4F83B09B468A460400A9
:103830004FF0000607D140F2DC42AFF24801AFF290
:10384000380005F03DFDBAF1000F09D1206C38B108
:1038500040F2DD42AFF26401AFF2540005F030FDFA
:1038600001F09EF848B9059838B14FF49C62AFF268
:103870007C01AFF26C0005F023FD4FF000094FF022
:103880008057DFF80C8601F07FFEA56B35B35146FB
:103890002046E668FFF79DFFBBF1000F11D0E66000
:1038A000606A50B104F1240000F0C1FF28B1C8F8EB
:1038B0000070BFF34F8FBFF36F8F01F07FFE0120C9
:1038C0000AE76D1EA563206810B901F004F9606075
:1038D00020690028F1D004F11000E5E7059808B14F
:1038E0001EB106E001F06AFE27E0684601F00DF81F
:1038F000012601F063FE00F091FC01F045FE94F911
:103900004400401C01D184F8449094F94500401CC7
:1039100001D184F8459001F051FE05A9684601F0F7
:1039200005F8002820460AD0FFF73AFE00F0E8FB31
:10393000204600F09FFA0028A5D00020CCE600F039
:1039400099FAD8B1206830B901F01EFE606801F024
:1039500032F801F033FE04F12400059900F00EFF67
:103960002046FFF71DFE00F0CBFB00288BD1C8F8E6
:103970000070BFF34F8FBFF36F8F84E72046FFF7D0
:103980000FFE00F0BDFB7EE770B50D46040007D1C9
:103990004FF41E72AFF2A411AFF2941005F090FC38
:1039A00000F0FBFF6168884204D1E068401CE060E1
:1039B000012070BD00232A4619462046FFF732FF3A
:1039C0000028F6D0E168491CE16070BD70B50C4676
:1039D000050007D140F2BD22AFF2E811AFF2D810D6
:1039E00005F06EFCAC4207D940F2BE22AFF2FC11EA
:1039F000AFF2EC1005F064FC022200212846FFF72C
:103A00003FFD002800D0846370BD2DE9F047984643
:103A100015468946040007D140F29F32AFF22C21AF
:103A2000AFF21C2005F04CFCB9F1000F09D1206C5D
:103A300038B14FF46872AFF24421AFF2342005F090
:103A40003FFCB8F1020F0AD1E06B012807D040F229
:103A5000A132AFF26021AFF2502005F031FC01F04D
:103A6000D2FD5020EFF3118780F31188BFF34F8F01
:103A7000BFF36F8FA06BE16B884207D3B8F1020FE1
:103A800004D0002087F31188BDE8F08794F94560E1
:103A9000424649462046FFF717FD701C04D0761CAD
:103AA00084F845600120EDE7A06C012620B1414675
:103AB0002046FFF73FFD06E0606A0028F2D004F1DF
:103AC000240000F0B4FE0028ECD0002DEAD02E60D7
:103AD000E8E72DE9F0410D46040007D140F23C42F1
:103AE000AFF2F021AFF2E02005F0EAFB206C38B134
:103AF0004FF48862AFF20431AFF2F42005F0E0FB3E
:103B0000206848B9606838B140F24542AFF21C31D4
:103B1000AFF20C3005F0D4FB01F075FD5020EFF34F
:103B2000118680F31188BFF34F8FBFF36F8FA16BA6
:103B3000E06B88421FD994F94500491CA163411CE0
:103B400004D0401C84F84500012015E0A06C01273A
:103B500020B100212046FFF7EDFC06E0606A002856
:103B6000F2D004F1240000F062FE0028ECD0002D19
:103B7000EAD02F60E8E7002086F31188D8E42DE929
:103B8000F04790468946040007D14FF4B462AFF283
:103B90009C31AFF28C3005F093FBB9F1000F09D1E5
:103BA000206C38B140F2A152AFF2B831AFF2A83078
:103BB00005F086FB01F027FD5020EFF3118780F31D
:103BC0001188BFF34F8FBFF36F8FA66BF6B194F9D7
:103BD000445049462046FFF7FCFD761EA663681C4C
:103BE00004D06D1C84F84450012010E020690028A6
:103BF000FAD004F1100000F01AFE0028F4D0B8F159
:103C0000000FF1D00121C8F80010EDE7002087F384
:103C1000118839E72DE9F0410E46040007D140F242
:103C2000FC52AFF23041AFF2204005F049FB4EB9F3
:103C3000206C48B140F2FD52AFF24841AFF238403B
:103C400005F03EFB206C38B940F2FE52AFF25C4109
:103C5000AFF24C4005F034FB01F0D5FC5020EFF3FF
:103C6000118580F31188BFF34F8FBFF36F8FA06B67
:103C700030B131462046E768FFF7ABFD0120E76031
:103C800085F3118854E410B5040007D140F22F6287
:103C9000AFF2A041AFF2904005F012FB01F074FCCE
:103CA000A46B01F08BFC204610BD10B5040007D1B9
:103CB00040F24162AFF2C441AFF2B44005F000FB04
:103CC00001F062FCD4E90E10441A01F077FC2046A2
:103CD00010BD10B5040007D140F25162AFF2EC41C3
:103CE000AFF2DC4005F0ECFAA06B10BD694A002190
:103CF00002EBC1035B68834206D1002042F8310029
:103D000002EBC10148607047491C0829F0D3704795
:103D100010B5040007D140F25D62AFF22851AFF256
:103D2000185005F0CDFA2046FFF7E0FF2046BDE829
:103D3000104001F044BD10B5040007D140F2937269
:103D4000AFF25051AFF2405005F0BAFAA06B08B193
:103D5000002010BD012010BD10B5040007D140F2B5
:103D6000BA72AFF27051AFF2605005F0A9FAA06BD1
:103D7000E16B884201D1012010BD002010BD10B5BB
:103D8000444B002253F832401CB1521C082AF9D38C
:103D900010BD43F8321003EBC201486010BD10B5EE
:103DA00000243C4A214602EBC1035B68834202D1F6
:103DB00052F8314002E0491C0829F4D3204610BDD6
:103DC00070B515460E46044601F0DEFB94F944102A
:103DD0000020491C01D184F8440094F94510491C85
:103DE00001D184F8450001F0E9FBA06B28B92A460F
:103DF000314604F1240000F0FFFC2046BDE870408D
:103E0000FFF7CEBB00220421FFF73ABB70B50D4689
:103E1000044601F0B9FBA06C08B9A06B08B10024FE
:103E200001E0A564012401F0C9FB204670BD10B576
:103E30000446806C884201D1A06B08B1002010BDFF
:103E400001F0A2FB0020A06401F0B8FB012010BD2E
:103E500008B500230A4669460093FFF7E3FC009883
:103E600008BD08B500210A4600916946FFF787FEA4
:103E7000009808BD10B5044601F086FBA06B20B188
:103E8000002401F09BFB204610BD0124F9E700004F
:103E900004ED00E0280300202DE9F041054601F083
:103EA00073FBFE4EB068401CB0603068FC4F10B130
:103EB000706930B32BE03560B068012827D1002449
:103EC00004EB840007EB8000FFF756FA641C202CFB
:103ED000F6D3F448FFF750FAF2481430FFF74CFAE3
:103EE000F0482830FFF748FAEE483C30FFF744FA34
:103EF000EC485030FFF740FAEA4870631430B06382
:103F000005E03068E96AC06A884200D83560706AA6
:103F10000121401C7062E86A3269814011433161BD
:103F200000EB800007EB8000291DFFF733FA01F05A
:103F300045FB706900280CD03068E96AC06A884285
:103F400007D2D9494FF080500860BFF34F8FBFF3BD
:103F50006F8FBDE8F0812DE9FF5F8346DDE90E87B5
:103F6000994616468A46900001F0BEFB05001AD01D
:103F7000582001F0B9FB040012D025630021CDE9DF
:103F80000241CDE900874B4632465146584600F083
:103F90005EFF2046FFF780FF012004B0BDE8F09FE0
:103FA000284601F00CFC4FF0FF30F6E770B50446F0
:103FB00001F0EAFAB94D04B92C68201DFFF70EFA9A
:103FC00058B9E06AB64A00EB800152F8211021B9D5
:103FD00001218140286988432861A06A18B104F151
:103FE0001800FFF7FBF9686A401C68622868844281
:103FF00008D1AC48211D3C30FFF7CCF96868401C63
:10400000686007E0A868401EA860204600F072FFC4
:1040100000F063FF01F0D2FA6869002812D0286826
:1040200084420FD1286B28B140F265429FA1A4A021
:1040300005F046F99C494FF080500860BFF34F8F60
:10404000BFF36F8F70BD2DE9F041944F0026386BA0
:1040500038B1B869401CB861F86900B10126304632
:1040600077E7FD686D1CFD6011D1786B006828B1A1
:1040700040F6D9128DA192A005F022F9786BB96BA8
:104080007963B863386A401C386200F026FFB86A6A
:10409000DFF80C82854209D3786B006880B1786BB9
:1040A000C068C468606885420DD2B8623868C06A6A
:1040B00000EB800158F821000128CDD90126CBE77B
:1040C0004FF0FF30F1E7201DFFF788F9A06A18B123
:1040D00004F11800FFF782F9E06A01213A69814092
:1040E0001143396100EB800108EB8100211DFFF7CE
:1040F00051F9E06A3968C96A8842CDD30126CBE715
:104100002DE9F047654D00242746286B28B94FF468
:10411000FD6266A16AA005F0D3F801F035FA286BBC
:10412000401E2863286BE0BBA8685E492831012641
:10413000B8B3DFF86C918846D8F80010E9B1D8F828
:104140000C00C46804F11800FFF748F9201DFFF7C0
:1041500045F9E06A2A6906FA00F11143296100EB8A
:10416000800109EB8100211DFFF714F9E06A29683D
:10417000C96A8842E0D3EE61DEE70CB100F0ADFE23
:10418000AC693CB1FFF75FFF00B1EE61641EF9D18D
:104190000020A861E86920B1434901273807086079
:1041A00000E003E0BFF34F8FBFF36F8F01F006FA1B
:1041B0003846BDE8F0872DE9F041384E0F460446F9
:1041C000F5683068001DFFF709F938B9306890F8D4
:1041D0002C1001208840316981433161601C08D175
:1041E0003FB13168BDE8F0412E485030091DFFF75E
:1041F000D1B830682C44AC424460316805D2B06B11
:10420000BDE8F041091DFFF7D1B8706B091DFFF73C
:10421000CDF8B06A844200D2B4629AE61F48016BBE
:10422000491C016370472DE9F0410E4605004FF02F
:10423000000405D140F279421CA121A005F040F80C
:104240002EB940F27A4219A11DA005F039F8134F9A
:10425000386B28B140F27B4214A119A005F030F868
:10426000FFF7DCFFFA6828688119904202D988427A
:1042700002D804E0884201D8914200D90124296083
:104280001CB1881A0021FFF796FFFFF739FF0028BD
:1042900022D105494FF08050086019E04400002009
:1042A00068030020E805002004ED00E02E2E5C46A7
:1042B00072656552544F535C7461736B732E630067
:1042C0004572726F723A25732C25640D0A00000046
:1042D000BFF34F8FBFF36F8F3BE610B5040014D0D0
:1042E000FE49096B39B140F2CF42AFF24001AFF263
:1042F000300004F0E5FFFFF791FF00212046FFF7B3
:104300005AFFFFF7FDFE002807D1F5494FF0805016
:104310000860BFF34F8FBFF36F8F10BD70B50500FE
:1043200007D140F2FB42AFF27C01AFF26C0004F027
:10433000C7FFEA4E3068854201D1002070BD01F010
:1043400023F96C6901F03AF9706B844202D0B06BCA
:10435000844201D1022070BDE248844204D1A86A9F
:104360000028F7D1032070BDDE481438844202D003
:104370000CB1012070BD042070BD10B5044601F0E1
:1043800003F90CB9D5480468E46A01F017F920462E
:1043900010BD10B5044601F036F95020EFF311813D
:1043A00080F31188BFF34F8FBFF36F8F0CB9CB48E9
:1043B0000468E06A81F3118810BD2DE9F041002600
:1043C0000D460446202908D34FF4B062AFF2241101
:1043D000AFF2141004F074FF1F2501F0D5F8BF4FA1
:1043E00004B93C68A06CA8423FD03968854206D920
:1043F0008C4207D03968C96AA94202D902E08C42CE
:1044000000D10126E16A8846884200D1E562A564B0
:10441000A069002802DBC5F12000A061B24D08EBC5
:104420008800616905EB8000814215D1201DFEF7EF
:10443000D5FF012120B93A6901FA08F082433A61B7
:10444000E06A3A6981401143396100EB800005EB75
:104450008000211DFEF79EFF3EB1A1494FF0805024
:104460000860BFF34F8FBFF36F8FBDE8F04101F0DD
:10447000A5B870B5994D286B10B10120E86170BDE9
:104480000020E8612869984EB0FA80F0C0F11F0062
:1044900000EB800456F8240038B940F6F622AFF25B
:1044A000F411AFF2E41004F00BFF06EB840000F10E
:1044B0000802416849684160914201D14968416000
:1044C000C868286070BD70B5044601F05DF8834D82
:1044D00004B92C68201DFEF781FF58B9E06A824AB2
:1044E00000EB800152F8211021B901218140286997
:1044F00088432861A06A18B104F11800FEF76EFF26
:10450000211D7848FEF746FF01F058F8686928B188
:1045100001F03AF800F0E1FC01F050F8286884421C
:1045200013D1686990B1286B38B140F25762AFF28D
:104530008421AFF2742004F0C3FE69494FF080502B
:104540000860BFF34F8FBFF36F8F70BD6548A968D8
:104550000068884202D10020286070BDBDE870402C
:1045600087E770B50025040007D140F28162AFF201
:10457000C421AFF2B42004F0A3FE5A496069884216
:1045800005D1A06A2839884201D000B90125284602
:1045900070BD70B504002BD0504D2868844231D0D6
:1045A00000F0F2FF2046FFF7DCFFE8B1201DFEF728
:1045B00015FFE06A01212A698140114329614A49B6
:1045C00000EB800001EB8000211DFEF7E3FEE06AB6
:1045D0002968C96A884207D341494FF08050086072
:1045E000BFF34F8FBFF36F8FBDE8704000F0E6BFA1
:1045F00040F2AB62AFF24C31AFF23C30BDE87040FC
:1046000004F05EBE70BD2DE9F0410026040007D124
:1046100040F2E262AFF26C31AFF25C3004F050FE77
:1046200000F0F1FF5020EFF3118580F31188BFF304
:104630004F8FBFF36F8F2046FFF793FFF0B1274FE7
:10464000386B20B1274804F11801283814E0E06ADB
:104650003968C96A884200D30126201DFEF7BEFED4
:10466000E06A01213A698140114339611E4900EB3A
:10467000800001EB8000211DFEF78CFE85F3118880
:10468000304666E4184E4FF08054154D00F056FC4D
:1046900030680128FAD92C60BFF34F8FBFF36F8FBA
:1046A000F4E71CB50D4800242C30CDE9004023462A
:1046B00080220EA10F48FFF74EFC012803D100F025
:1046C00044FD01281CD0401C2CD140F28472AFF272
:1046D0002441AFF2144002B00EE00000440000207C
:1046E00004ED00E0380600206803002049444C45F2
:1046F0000000000085460008BDE8104004F0E0BD61
:10470000502080F31188BFF34F8FBFF36F8FFF48A6
:104710004FF0FF31816201214161C460BDE81C405E
:1047200000F0F0BE1CBD502080F31188BFF34F8F06
:10473000BFF36F8FF5490020486100F019BFF348BF
:10474000C068704710B500F05EFFF048C06810BD4B
:10475000EE488068704710B510B104461CB10AE0FD
:10476000EA480468FAE740F68C02AFF2C041AFF2C3
:10477000B04004F0A5FD04F1340010BD70B50D4645
:10478000040007D140F60632AFF2E041AFF2D0406C
:1047900004F096FDDD48016820461831FEF706FE5C
:1047A0002846BDE87040012105E52DE9F041174696
:1047B0000E46050007D140F61732AFF21051AFF2A6
:1047C000005004F07DFDD14C206B38B940F61B320F
:1047D000AFF22851AFF2185004F072FD216846F094
:1047E00000408861216828461831FEF7D3FD38461D
:1047F000BDE8F0410121DEE470B514460E46050027
:1048000007D140F63132AFF25C51AFF24C5004F0B8
:1048100057FDBE48016828461831FEF7BBFD0CB1B4
:104820004FF0FF3621463046BDE87040C3E42DE925
:10483000F041C068C4683CB940F66132AFF29451AF
:10484000AFF2845004F03CFD04F118000746FEF777
:10485000C5FDAE4D286B012658B13946AC48FEF770
:1048600099FDE06A2968C96A884212D90120EE617F
:10487000D3E4201DFEF7B2FDE06A2A6906FA00F1D2
:1048800011432961A34900EB800001EB8000211D49
:10489000E5E70020C1E470B59C4D06460C46286B48
:1048A00038B940F69932AFF2FC51AFF2EC5004F057
:1048B00007FD44F000403060F4683CB940F6A13296
:1048C000AFF21861AFF2086004F0FAFC3046FEF770
:1048D00085FD201DFEF782FDE06A01262A6906FAA1
:1048E00000F1114329618B4900EB800001EB80004E
:1048F000211DFEF74FFDE06A2968C96A884202D986
:104900000120EE6170BD002070BD10B5040007D11C
:1049100040F6C132AFF26C61AFF25C6004F0D0FCE3
:104920007A48016A2160C068606010BD70B50D46AC
:10493000040007D140F6CB32AFF29061AFF2806055
:1049400004F0BEFC3DB940F6CC32AFF2A061AFF24C
:10495000906004F0B5FC00F017FE6C4AD06829683E
:104960004B1C0FD02368126A934202D062688242C5
:104970000AD96268801A884206D2081A286020463E
:10498000FFF7C3FF002400E0012400F017FE2046DB
:1049900070BD5E490120C86170475C48006870477F
:1049A0005A48416919B1006B18B1002070470120C5
:1049B00070470220704770B5040039D0534DE06A4B
:1049C0002968C96A884233D2A069002804DB2868B4
:1049D000C06AC0F12000A061E06A4E4E00EB80008A
:1049E000616906EB800081421FD1201DFEF7F6FCB5
:1049F000012150B9E06A00EB800256F8222022B96A
:104A00002A6901FA00F082432A612868C06AE062DC
:104A10002A6981401143296100EB800006EB800088
:104A2000211DBDE87040FEF7B5BC2868C06AE06291
:104A300070BD70B504004FF0000640D0334D2868BB
:104A4000844207D040F6C762AFF2A071AFF2907017
:104A500004F036FCE06C38B940F6C962AFF2B471CC
:104A6000AFF2A47004F02CFCE06C401EE064A26C79
:104A7000E16A914223D010BB201DFEF7AFFC25490F
:104A8000012250B9E06A00EB800351F8233023B9CA
:104A90002B6902FA00F083432B61A06CE062C0F145
:104AA0002000A061E06A2B6982401A432A6100EB72
:104AB000800001EB8000211DFEF76CFC01263046D2
:104AC00070BD124908680A688069D26A0968C2F133
:104AD00020028A6170470D49086818B10868C26CE5
:104AE000521CC2640868704770B50C46064600F058
:104AF0004BFD064D2868006DC0B92968012081F87A
:104B000054009CB10121204606E000004400002032
:104B10001006002068030020FFF74DFBFA494FF014
:104B200080500860BFF34F8FBFF36F8F00F046FDDA
:104B300000F02AFD2868046D002034B116B1296800
:104B4000086502E02A68611E1165296881F8540031
:104B500000F034FD204670BD2DE9F0411E4615469B
:104B60008846074600F010FDE84C206890F8540095
:104B7000022814D02068016DB94301652168012025
:104B800081F854005EB101213046FFF714FBDE4985
:104B90004FF080500860BFF34F8FBFF36F8F00F06E
:104BA0000DFD00F0F1FC15B12068006D2860206853
:104BB00090F8540001280DD02068016D21EA080109
:104BC000016501252168002081F8540000F0F6FC01
:104BD000284656E50025F5E72DE9F0411F469046A9
:104BE0000D4604004FF0010607D141F2FD02AFF679
:104BF0004411AFF6341004F063FB00F0C5FC0FB1B4
:104C0000206D386094F85400022184F85410B8F1F3
:104C1000050F0ED2DFE808F00D03060C0A00216D27
:104C2000294301E0216D491C216502E0022803D0DF
:104C30002565012802D02AE0002628E0201DFEF785
:104C4000CDFBB24DE06A01212A69814011432961FF
:104C5000AF4900EB800001EB8000211DFEF79AFBBD
:104C6000A06A38B141F23512AFF6C011AFF6B010FC
:104C700004F026FBE06A2968C96A884207D9A2497C
:104C80004FF080500860BFF34F8FBFF36F8F00F07D
:104C900095FC3046F5E42DE9F0471F46DDF82090FD
:104CA00092460D4604004FF0010807D141F2681208
:104CB000AFF60821AFF6F81004F002FB00F0A3FCF9
:104CC0005020EFF3118680F31188BFF34F8FBFF3AD
:104CD0006F8F0FB1206D386094F85400022184F872
:104CE0005410BAF1050F0ED2DFE80AF00D03060CDE
:104CF0000A00216D294301E0216D491C216502E074
:104D0000022803D02565012803D031E04FF00008C8
:104D10002EE0A06A38B141F2AF12AFF67021AFF6C3
:104D2000602004F0CDFA794D286B012778B104F1A9
:104D300018017848FEF72EFBE06A2968C96A8842A4
:104D400016D9B9F1000F12D0C9F8007010E0201D7B
:104D5000FEF744FBE06A2A6907FA00F11143296172
:104D600000EB80016A4800EB8100211DE2E7EF6162
:104D700086F311884046BDE8F0872DE9F04188466A
:104D8000040007D141F2E312AFF6E021AFF6D020E4
:104D900004F096FA00F037FC5020EFF3118780F30F
:104DA0001188BFF34F8FBFF36F8F94F85400022127
:104DB00084F85410216D491C216501282ED1A06A68
:104DC00038B141F20922AFF61C31AFF60C3004F0D5
:104DD00077FA4E4D286B012678B104F118014D4841
:104DE000FEF7D8FAE06A2968C96A884216D9B8F18C
:104DF000000F12D0C8F8006010E0201DFEF7EEFA98
:104E0000E06A2A6906FA00F111432961404900EB82
:104E1000800001EB8000211DE2E7EE6187F311883D
:104E20002FE410B558B1044600F0AEFB94F85400DE
:104E3000022807D0002400F0C1FB204610BD3348F3
:104E40000468F1E7002084F854000124F3E72DE919
:104E5000F0470E46DDE9098482466FF00301206BBE
:104E600001EB82010844089D20F007079946780766
:104E700005D040F22B3228A12CA004F021FA00200A
:104E80002218315C82F83410315C11B1401C1428B6
:104E9000F6D3002684F84760202D00D31F25E56255
:104EA000C4E91256201DFEF772FA04F11800FEF74D
:104EB0006EFA2461C5F120006462A061266584F861
:104EC00054604A465146384600F0FFFA2060B8F177
:104ED000000F01D0C8F800404DE70C48416B09684D
:104EE00029B1416BC968C9684968816270474FF050
:104EF000FF31FAE710B50446006B00F060FC204675
:104F0000BDE8104000F05BBC04ED00E04400002070
:104F100068030020100600202E2E5C467265655244
:104F2000544F535C7461736B732E63004572726FE0
:104F3000723A25732C25640D0A00000070B5124EDC
:104F4000124D1CE0FFF76AF9306820B10024FFF72A
:104F5000D7F8A4B901E00124F9E700F015FBF068E7
:104F6000C468201DFEF73AFAA868401EA860686869
:104F7000401E686000F022FB2046FFF7BBFF686818
:104F80000028DFD170BD000024060020440000206E
:104F900070B500244160F74D0061914206D8D11AE6
:104FA0008269914206D2011D286907E09A4203D224
:104FB000994201D3012403E0011DE868FEF7F6F9E8
:104FC000204670BD2DE9FF479946DDF830A0904698
:104FD0000D4606004FF0000705D14FF4D372E6A14D
:104FE000EBA004F06DF9E34C206880B1CDE90058E6
:104FF0000296062D11DAFFF7D3FC02284FF00003CA
:1050000009D0002269462068FEF706FB074604B077
:105010003846BDE8F0875246F4E700234A46694621
:10502000FEF7F3FCF2E770B586B0D24E53E001987C
:10503000002806DADDE90301029A9047019800286A
:1050400049DB039C606910B1201DFEF7C7F905A874
:1050500000F04DF9054601980A283CD2DFE800F03F
:105060000505053B273805053B270298A16903463E
:1050700001442A462046FFF78BFF00282BD0616AA7
:1050800020468847E069012825D100200090029839
:10509000A1690023421819462046FFF793FFD0B9B3
:1050A00040F22132B4A1BAA004F00AF913E0029848
:1050B000A06128B94FF44E72AFA1B5A004F000F979
:1050C000A0692B4641191A462046FFF761FF02E00E
:1050D000204600F074FB00231A4601A93068FEF751
:1050E000A1FB0028A3D106B070BDA24CE068016806
:1050F00039B1002139B1002000F00BF9FFF793FF1F
:10510000F4E70121F6E7C0680068F5E710B500F0A4
:105110003BFA984C2068A0B9A148FEF72DF9A048A9
:105120001430FEF729F99E48E06014302061002217
:1051300010210520FEF7A4F9206010B199A1FEF717
:105140001EFEBDE8104000F039BA1CB50024FFF780
:10515000DDFF8848006868B186491F20091DCDE938
:10516000000100234FF4807290A19248FEF7F3FEF5
:10517000040005D140F233127FA185A004F0A0F80D
:1051800020461CBD2DE9F0470746994616460D46B8
:105190002820DDF820A000F0A7FA040014D0B846BB
:1051A0004F46D1462DB94FF4C67283A188A004F0B2
:1051B00087F8FFF7ABFF04F11801C4F8008081E81D
:1051C000E002201DFEF7E3F8204622E710B5694C07
:1051D000606828B94FF4E87267A16DA004F070F818
:1051E000606810BD10B5040005D140F2D91262A16B
:1051F00067A004F065F8A06910BD10B5040005D1E2
:1052000040F2E3125CA162A004F05AF8606810BD9D
:1052100010B5040005D140F2ED1257A15CA004F0D6
:105220004FF8206810BD10B5040005D140F2DA3205
:1052300051A157A004F044F800F0A6F9606908B144
:10524000012400E0002400F0B9F9204610BD10B59B
:10525000040005D140F2EF3247A14DA004F030F830
:1052600000F092F9246A00F0A9F9204610BD70B54B
:105270000D46040005D140F2FF323FA144A004F0E6
:105280001FF800F081F92562BDE8704000F096B982
:105290007FB56FF0010401AE009486E80700354841
:1052A0001D4600232A4669460068FEF7AEFB04B09F
:1052B00070BD2DE9FF412F4C0746984620681546E2
:1052C0000E4628B940F22B422BA131A003F0F8FF83
:1052D0004FF0FF30CDE90007CDE9026500234246DB
:1052E00069462068FEF798F904B0BDE8F08170B512
:1052F0000546FFF724FA1F4E0446B068844203D2E5
:1053000000F070F8012000E0002028602046B46022
:1053100070BDF8B50D460646FEF780FF6846FFF7FC
:10532000E6FF0446009810B1FEF7EAFEF8BD11480A
:10533000ADB101690968D9B10025311B2A46006861
:10534000FEF73EFDFEF7DCFE0028EFD124494FF0CA
:1053500080500860BFF34F8FBFF36F8FF8BDA64238
:10536000EBD8FEF7CDFE2146304600F06EF8F8BDD2
:105370000125E2E7800000202E2E5C467265655212
:10538000544F535C74696D6572732E6300000000A6
:105390004572726F723A25732C25640D0A00000065
:1053A0004C060020546D725100000000546D7220B4
:1053B00053766300EB5000082E2E5C4672656552F2
:1053C000544F535C74696D6572732E630000000066
:1053D0004572726F723A25732C25640D0A00000025
:1053E00004ED00E0F8B52F4E27E0C068C4680568FA
:1053F000201DFDF7F3FF616A20468847E069012818
:105400001BD1A0692844A84206D924616060211DEF
:10541000F068FDF7CBFF10E0002003460146009046
:105420002A462046FFF7CEFD38B940F29232AFF25D
:105430007801AFF2640003F043FFF06801680029CF
:10544000D3D13169C6E90310F8BDF8B50546154852
:105450000E46C068C068C468201DFDF7BFFFE06944
:10546000012818D1A0692B46411932462046FFF782
:105470008FFD80B100200346014600902A46204659
:10548000FFF7A0FD38B94FF40272AFF2D401AFF2CA
:10549000C00003F015FF616A01B02046BDE8F0408E
:1054A000084700008000002069484068401C04D084
:1054B000F42268A172A003F003FF502080F311884A
:1054C000BFF34F8FBFF36F8FFEE710B5031F4FF091
:1054D00080741C601B1F21F001011960191F6C4BA7
:1054E0000B60143940380A6010BD6A484FF47A7175
:1054F0000068B0FBF1F14FF0E020491E4161072147
:10550000016170471CB5644908780190FF2008705C
:1055100008788DF800009DF800004D4A00F050001A
:1055200010700720906007E09068401E90609DF822
:10553000000040008DF800009DF800000006F3D444
:10554000107A000200F4E0609060019808705348FF
:10555000016841F470010160016841F0704101602F
:10556000FFF7C3FF00205060FAF7B8FE00201CBD13
:1055700037484068B0F57A7F05D04FF4B57235A151
:105580003FA003F09DBE7047502080F31188BFF309
:105590004F8FBFF36F8F2E494868401C4860012829
:1055A0000BD13E481C38006810F0FF0F05D04FF4B7
:1055B000BD7228A132A003F083BE704710B5244C01
:1055C000606828B940F2811222A12DA003F078FE74
:1055D0006068401E606001D180F3118810BD10B575
:1055E000502080F31188BFF34F8FBFF36F8FFEF70A
:1055F0002AFD20B129494FF080501C390860002055
:1056000080F3118810BD10B5FAF79EFE104C1028DB
:105610000CD300F1E02090F8F0032178884205D205
:105620004FF42A720BA116A003F04AFE1B4814384F
:105630000068A16800F4E060884207D9BDE8104026
:105640004FF42E7203A10EA003F03ABE10BD00006D
:10565000940000202E2E5C4672656552544F535CB8
:10566000706F727461626C655C525644535C415257
:105670004D5F434D335C706F72742E630000000009
:105680004572726F723A25732C25640D0A00000072
:10569000A95400080000002000E400E020ED00E034
:1056A00030B5744900E011460A688242FBD34B686A
:1056B0005C18844203D14068184448600846436837
:1056C0001C18944209D16B4C103C2468A24209D0AA
:1056D00052681A4442600A6812680260814200D02F
:1056E000086030BD0460F9E72DE9F0410546002669
:1056F000FEF794FD5F4F103F386808B900F098F846
:10570000F86805424ED1002D4CD0083568070BD003
:1057100005F00700C0F108000544680704D0BF2267
:1057200055A15FA003F0CCFD002D3BD078688542E9
:1057300038D850490846046801E0214604466068AC
:10574000A84202D220680028F7D13868B8468442BF
:1057500028D00E682068086060680836401B102852
:105760000ED96719780704D0EC2243A14CA003F0AE
:10577000A7FD6068401B786038466560FFF790FFC2
:105780006168D8F804004246401AC8F80400D8F806
:105790000830984200D29060D8F80C0001430020F5
:1057A000C4E90001FEF7ACFC700705D04FF4967217
:1057B00031A13BA003F084FD3046BDE8F08170B517
:1057C00000282BD02B4DA0F10804103D6068E9683B
:1057D000084205D14FF4A07227A131A003F070FD5B
:1057E000206828B140F2411223A12DA003F068FDEA
:1057F0006068E968084211D02268002A0ED1884307
:105800006060FEF70BFD60686968084468602046C8
:10581000FFF746FFBDE87040FEF772BC70BD15484B
:1058200010384068704713481038806870477047D8
:105830001F484FF4F041420706D0C01D1C4920F01C
:105840000700411AC1F5F0410A4A00230144C2E9A8
:1058500000030839103A21F0070111604B600B601A
:105860000B1AC0E9001393604FF000405360D06002
:1058700070470000B00000202E2E5C467265655215
:10588000544F535C706F727461626C655C4D656DF2
:105890004D616E675C686561705F342E6300000067
:1058A0004572726F723A25732C25640D0A00000050
:1058B000740600202DE9F0411C46069B174606465B
:1058C00029B1F72903D86E4D084629710EB102247B
:1058D0001BE06C4929616C4969616C49E9606C495C
:1058E000A9610021E9616B4929626B4969626B49D1
:1058F000A9622246394600F00DFB040005D100F0F4
:105900009FFD28B16E71012028702046BDE8F0810E
:105910000324FAE770B50446401E0D467E282CD8B5
:10592000FFF732FE56482C30BDB1002200EBC20119
:105930004B680BB1AB4205D100F8324000EBC2001E
:10594000456002E0521C102AF0DB102A01D000242E
:1059500000E00424FFF732FE10E0002110F83120AF
:10596000A24206D1002200F8312000EBC1004260C3
:10597000EDE7491C1029F1DBE9E70224204670BD60
:105980003F4810B501780024012902D006242046A2
:1059900010BDC1690029FAD08847F8E770B5384DC5
:1059A00000242878012802D00624204670BD2869EA
:1059B000804700202870F8E710B5314C207818B1E6
:1059C000012805D0062010BD6069804701202070A5
:1059D000002010BD38B52A4C207808B1062038BD0B
:1059E000684600F038FD012848D19DF800000128E4
:1059F00044D0022802D0042840D10FE0204AA369F5
:105A0000921D911CC81F9847C0BB607821798842BD
:105A100000D098BB042000F018FD2FE0A068012101
:105A2000174B0578A570E17000212C3313F8312055
:105A300062B1AA4207D103EBC1014A681049891D2E
:105A40009047E07002E0491C1029EFDB6078A8B1B4
:105A5000E27872B10020E080A07840F08001A06878
:105A60000170E188491C89B2E1804254E088401C01
:105A7000E080D4E90213E28820799847002038BDFD
:105A8000B80000205D5F00087D5F0008D95F000856
:105A9000975F000857600008AF600008FB600008CF
:105AA00070B50C460988002605292FD1417840F2AF
:105AB000CF750A0281781143C278491C130202791A
:105AC00089B21A43531EAB4220D200232380012502
:105AD00000F8015B23885B1C2380530703D005EB90
